{
  "contractName": "Badge",
  "abi": [
    {
      "inputs": [],
      "stateMutability": "nonpayable",
      "type": "constructor"
    },
    {
      "anonymous": false,
      "inputs": [
        {
          "indexed": true,
          "internalType": "address",
          "name": "owner",
          "type": "address"
        },
        {
          "indexed": true,
          "internalType": "address",
          "name": "approved",
          "type": "address"
        },
        {
          "indexed": true,
          "internalType": "uint256",
          "name": "tokenId",
          "type": "uint256"
        }
      ],
      "name": "Approval",
      "type": "event"
    },
    {
      "anonymous": false,
      "inputs": [
        {
          "indexed": true,
          "internalType": "address",
          "name": "owner",
          "type": "address"
        },
        {
          "indexed": true,
          "internalType": "address",
          "name": "operator",
          "type": "address"
        },
        {
          "indexed": false,
          "internalType": "bool",
          "name": "approved",
          "type": "bool"
        }
      ],
      "name": "ApprovalForAll",
      "type": "event"
    },
    {
      "anonymous": false,
      "inputs": [
        {
          "indexed": true,
          "internalType": "address",
          "name": "from",
          "type": "address"
        },
        {
          "indexed": true,
          "internalType": "address",
          "name": "to",
          "type": "address"
        },
        {
          "indexed": true,
          "internalType": "uint256",
          "name": "tokenId",
          "type": "uint256"
        }
      ],
      "name": "Transfer",
      "type": "event"
    },
    {
      "inputs": [
        {
          "internalType": "address",
          "name": "to",
          "type": "address"
        },
        {
          "internalType": "uint256",
          "name": "tokenId",
          "type": "uint256"
        }
      ],
      "name": "approve",
      "outputs": [],
      "stateMutability": "nonpayable",
      "type": "function"
    },
    {
      "inputs": [
        {
          "internalType": "address",
          "name": "owner",
          "type": "address"
        }
      ],
      "name": "balanceOf",
      "outputs": [
        {
          "internalType": "uint256",
          "name": "",
          "type": "uint256"
        }
      ],
      "stateMutability": "view",
      "type": "function",
      "constant": true
    },
    {
      "inputs": [
        {
          "internalType": "uint256",
          "name": "tokenId",
          "type": "uint256"
        }
      ],
      "name": "getApproved",
      "outputs": [
        {
          "internalType": "address",
          "name": "",
          "type": "address"
        }
      ],
      "stateMutability": "view",
      "type": "function",
      "constant": true
    },
    {
      "inputs": [
        {
          "internalType": "address",
          "name": "owner",
          "type": "address"
        },
        {
          "internalType": "address",
          "name": "operator",
          "type": "address"
        }
      ],
      "name": "isApprovedForAll",
      "outputs": [
        {
          "internalType": "bool",
          "name": "",
          "type": "bool"
        }
      ],
      "stateMutability": "view",
      "type": "function",
      "constant": true
    },
    {
      "inputs": [],
      "name": "name",
      "outputs": [
        {
          "internalType": "string",
          "name": "",
          "type": "string"
        }
      ],
      "stateMutability": "view",
      "type": "function",
      "constant": true
    },
    {
      "inputs": [
        {
          "internalType": "uint256",
          "name": "tokenId",
          "type": "uint256"
        }
      ],
      "name": "ownerOf",
      "outputs": [
        {
          "internalType": "address",
          "name": "",
          "type": "address"
        }
      ],
      "stateMutability": "view",
      "type": "function",
      "constant": true
    },
    {
      "inputs": [
        {
          "internalType": "address",
          "name": "from",
          "type": "address"
        },
        {
          "internalType": "address",
          "name": "to",
          "type": "address"
        },
        {
          "internalType": "uint256",
          "name": "tokenId",
          "type": "uint256"
        }
      ],
      "name": "safeTransferFrom",
      "outputs": [],
      "stateMutability": "nonpayable",
      "type": "function"
    },
    {
      "inputs": [
        {
          "internalType": "address",
          "name": "from",
          "type": "address"
        },
        {
          "internalType": "address",
          "name": "to",
          "type": "address"
        },
        {
          "internalType": "uint256",
          "name": "tokenId",
          "type": "uint256"
        },
        {
          "internalType": "bytes",
          "name": "_data",
          "type": "bytes"
        }
      ],
      "name": "safeTransferFrom",
      "outputs": [],
      "stateMutability": "nonpayable",
      "type": "function"
    },
    {
      "inputs": [
        {
          "internalType": "address",
          "name": "operator",
          "type": "address"
        },
        {
          "internalType": "bool",
          "name": "approved",
          "type": "bool"
        }
      ],
      "name": "setApprovalForAll",
      "outputs": [],
      "stateMutability": "nonpayable",
      "type": "function"
    },
    {
      "inputs": [],
      "name": "symbol",
      "outputs": [
        {
          "internalType": "string",
          "name": "",
          "type": "string"
        }
      ],
      "stateMutability": "view",
      "type": "function",
      "constant": true
    },
    {
      "inputs": [
        {
          "internalType": "address",
          "name": "_recipient",
          "type": "address"
        },
        {
          "internalType": "string",
          "name": "_uri",
          "type": "string"
        }
      ],
      "name": "mintBadge",
      "outputs": [],
      "stateMutability": "payable",
      "type": "function",
      "payable": true
    },
    {
      "inputs": [
        {
          "internalType": "address",
          "name": "from",
          "type": "address"
        },
        {
          "internalType": "address",
          "name": "to",
          "type": "address"
        },
        {
          "internalType": "uint256",
          "name": "tokenId",
          "type": "uint256"
        }
      ],
      "name": "transferFrom",
      "outputs": [],
      "stateMutability": "nonpayable",
      "type": "function"
    },
    {
      "inputs": [
        {
          "internalType": "bytes4",
          "name": "interfaceId",
          "type": "bytes4"
        }
      ],
      "name": "supportsInterface",
      "outputs": [
        {
          "internalType": "bool",
          "name": "",
          "type": "bool"
        }
      ],
      "stateMutability": "view",
      "type": "function",
      "constant": true
    },
    {
      "inputs": [
        {
          "internalType": "uint256",
          "name": "tokenId",
          "type": "uint256"
        }
      ],
      "name": "tokenURI",
      "outputs": [
        {
          "internalType": "string",
          "name": "",
          "type": "string"
        }
      ],
      "stateMutability": "view",
      "type": "function",
      "constant": true
    }
  ],
  "bytecode": "0x60806040523480156200001157600080fd5b50604080518082018252601081526f457863656c6c656e636520426164676560801b602080830191825283518085019094526005845264424144474560d81b908401528151919291620000679160009162000086565b5080516200007d90600190602084019062000086565b50505062000169565b82805462000094906200012c565b90600052602060002090601f016020900481019282620000b8576000855562000103565b82601f10620000d357805160ff191683800117855562000103565b8280016001018555821562000103579182015b8281111562000103578251825591602001919060010190620000e6565b506200011192915062000115565b5090565b5b8082111562000111576000815560010162000116565b600181811c908216806200014157607f821691505b602082108114156200016357634e487b7160e01b600052602260045260246000fd5b50919050565b61146f80620001796000396000f3fe6080604052600436106100bd5760003560e01c80636b2bafc81161006f5780636b2bafc8146101d357806370a08231146101e657806395d89b4114610214578063a22cb46514610229578063b88d4fde14610249578063c87b56dd14610269578063e985e9c51461028957600080fd5b806301ffc9a7146100c257806306fdde03146100f7578063081812fc14610119578063095ea7b31461015157806323b872dd1461017357806342842e0e146101935780636352211e146101b3575b600080fd5b3480156100ce57600080fd5b506100e26100dd366004610fef565b6102a9565b60405190151581526020015b60405180910390f35b34801561010357600080fd5b5061010c6102ba565b6040516100ee9190611060565b34801561012557600080fd5b50610139610134366004611073565b61034c565b6040516001600160a01b0390911681526020016100ee565b34801561015d57600080fd5b5061017161016c3660046110a8565b6103d9565b005b34801561017f57600080fd5b5061017161018e3660046110d2565b6104ea565b34801561019f57600080fd5b506101716101ae3660046110d2565b61054c565b3480156101bf57600080fd5b506101396101ce366004611073565b610567565b6101716101e136600461110e565b6105de565b3480156101f257600080fd5b50610206610201366004611191565b610624565b6040519081526020016100ee565b34801561022057600080fd5b5061010c6106ab565b34801561023557600080fd5b506101716102443660046111ac565b6106ba565b34801561025557600080fd5b506101716102643660046111fe565b6106c9565b34801561027557600080fd5b5061010c610284366004611073565b610745565b34801561029557600080fd5b506100e26102a43660046112da565b610852565b60006102b482610880565b92915050565b6060600080546102c99061130d565b80601f01602080910402602001604051908101604052809291908181526020018280546102f59061130d565b80156103425780601f1061031757610100808354040283529160200191610342565b820191906000526020600020905b81548152906001019060200180831161032557829003601f168201915b5050505050905090565b6000610357826108d0565b6103bd5760405162461bcd60e51b815260206004820152602c60248201527f4552433732313a20617070726f76656420717565727920666f72206e6f6e657860448201526b34b9ba32b73a103a37b5b2b760a11b60648201526084015b60405180910390fd5b506000908152600460205260409020546001600160a01b031690565b60006103e482610567565b9050806001600160a01b0316836001600160a01b031614156104525760405162461bcd60e51b815260206004820152602160248201527f4552433732313a20617070726f76616c20746f2063757272656e74206f776e656044820152603960f91b60648201526084016103b4565b336001600160a01b038216148061046e575061046e8133610852565b6104db5760405162461bcd60e51b815260206004820152603860248201527f4552433732313a20617070726f76652063616c6c6572206973206e6f74206f776044820152771b995c881b9bdc88185c1c1c9bdd995908199bdc88185b1b60421b60648201526084016103b4565b6104e583836108ed565b505050565b6001600160a01b038316156105415760405162461bcd60e51b815260206004820152601b60248201527f42616467657320617265206e6f74207472616e7366657261626c65000000000060448201526064016103b4565b6104e583838361095b565b6104e5838383604051806020016040528060008152506106c9565b6000818152600260205260408120546001600160a01b0316806102b45760405162461bcd60e51b815260206004820152602960248201527f4552433732313a206f776e657220717565727920666f72206e6f6e657869737460448201526832b73a103a37b5b2b760b91b60648201526084016103b4565b6105ec600780546001019055565b60006105f760075490565b6000818152600860205260409020909150610613908484610f3d565b5061061e8482610af7565b50505050565b60006001600160a01b03821661068f5760405162461bcd60e51b815260206004820152602a60248201527f4552433732313a2062616c616e636520717565727920666f7220746865207a65604482015269726f206164647265737360b01b60648201526084016103b4565b506001600160a01b031660009081526003602052604090205490565b6060600180546102c99061130d565b6106c5338383610b11565b5050565b6106d33383610bdc565b6107395760405162461bcd60e51b815260206004820152603160248201527f4552433732313a207472616e736665722063616c6c6572206973206e6f74206f6044820152701ddb995c881b9bdc88185c1c1c9bdd9959607a1b60648201526084016103b4565b61061e84848484610ca6565b6060610750826108d0565b6107b45760405162461bcd60e51b815260206004820152602f60248201527f4552433732314d657461646174613a2055524920717565727920666f72206e6f60448201526e3732bc34b9ba32b73a103a37b5b2b760891b60648201526084016103b4565b600082815260086020526040902080546107cd9061130d565b80601f01602080910402602001604051908101604052809291908181526020018280546107f99061130d565b80156108465780601f1061081b57610100808354040283529160200191610846565b820191906000526020600020905b81548152906001019060200180831161082957829003601f168201915b50505050509050919050565b6001600160a01b03918216600090815260056020908152604080832093909416825291909152205460ff1690565b60006001600160e01b031982166380ac58cd60e01b14806108b157506001600160e01b03198216635b5e139f60e01b145b806102b457506301ffc9a760e01b6001600160e01b03198316146102b4565b6000908152600260205260409020546001600160a01b0316151590565b600081815260046020526040902080546001600160a01b0319166001600160a01b038416908117909155819061092282610567565b6001600160a01b03167f8c5be1e5ebec7d5bd14f71427d1e84f3dd0314c0f7b2291e5b200ac8c7c3b92560405160405180910390a45050565b826001600160a01b031661096e82610567565b6001600160a01b0316146109d25760405162461bcd60e51b815260206004820152602560248201527f4552433732313a207472616e736665722066726f6d20696e636f72726563742060448201526437bbb732b960d91b60648201526084016103b4565b6001600160a01b038216610a345760405162461bcd60e51b8152602060048201526024808201527f4552433732313a207472616e7366657220746f20746865207a65726f206164646044820152637265737360e01b60648201526084016103b4565b610a3f6000826108ed565b6001600160a01b0383166000908152600360205260408120805460019290610a6890849061135e565b90915550506001600160a01b0382166000908152600360205260408120805460019290610a96908490611375565b909155505060008181526002602052604080822080546001600160a01b0319166001600160a01b0386811691821790925591518493918716917fddf252ad1be2c89b69c2b068fc378daa952ba7f163c4a11628f55a4df523b3ef91a4505050565b6106c5828260405180602001604052806000815250610cd9565b816001600160a01b0316836001600160a01b03161415610b6f5760405162461bcd60e51b815260206004820152601960248201527822a9219b99189d1030b8383937bb32903a379031b0b63632b960391b60448201526064016103b4565b6001600160a01b03838116600081815260056020908152604080832094871680845294825291829020805460ff191686151590811790915591519182527f17307eab39ab6107e8899845ad3d59bd9653f200f220920489ca2b5937696c31910160405180910390a3505050565b6000610be7826108d0565b610c485760405162461bcd60e51b815260206004820152602c60248201527f4552433732313a206f70657261746f7220717565727920666f72206e6f6e657860448201526b34b9ba32b73a103a37b5b2b760a11b60648201526084016103b4565b6000610c5383610567565b9050806001600160a01b0316846001600160a01b03161480610c8e5750836001600160a01b0316610c838461034c565b6001600160a01b0316145b80610c9e5750610c9e8185610852565b949350505050565b610cb184848461095b565b610cbd84848484610d0c565b61061e5760405162461bcd60e51b81526004016103b49061138d565b610ce38383610e0a565b610cf06000848484610d0c565b6104e55760405162461bcd60e51b81526004016103b49061138d565b60006001600160a01b0384163b15610dff57604051630a85bd0160e11b81526001600160a01b0385169063150b7a0290610d509033908990889088906004016113df565b6020604051808303816000875af1925050508015610d8b575060408051601f3d908101601f19168201909252610d889181019061141c565b60015b610de5573d808015610db9576040519150601f19603f3d011682016040523d82523d6000602084013e610dbe565b606091505b508051610ddd5760405162461bcd60e51b81526004016103b49061138d565b805181602001fd5b6001600160e01b031916630a85bd0160e11b149050610c9e565b506001949350505050565b6001600160a01b038216610e605760405162461bcd60e51b815260206004820181905260248201527f4552433732313a206d696e7420746f20746865207a65726f206164647265737360448201526064016103b4565b610e69816108d0565b15610eb65760405162461bcd60e51b815260206004820152601c60248201527f4552433732313a20746f6b656e20616c7265616479206d696e7465640000000060448201526064016103b4565b6001600160a01b0382166000908152600360205260408120805460019290610edf908490611375565b909155505060008181526002602052604080822080546001600160a01b0319166001600160a01b03861690811790915590518392907fddf252ad1be2c89b69c2b068fc378daa952ba7f163c4a11628f55a4df523b3ef908290a45050565b828054610f499061130d565b90600052602060002090601f016020900481019282610f6b5760008555610fb1565b82601f10610f845782800160ff19823516178555610fb1565b82800160010185558215610fb1579182015b82811115610fb1578235825591602001919060010190610f96565b50610fbd929150610fc1565b5090565b5b80821115610fbd5760008155600101610fc2565b6001600160e01b031981168114610fec57600080fd5b50565b60006020828403121561100157600080fd5b813561100c81610fd6565b9392505050565b6000815180845260005b818110156110395760208185018101518683018201520161101d565b8181111561104b576000602083870101525b50601f01601f19169290920160200192915050565b60208152600061100c6020830184611013565b60006020828403121561108557600080fd5b5035919050565b80356001600160a01b03811681146110a357600080fd5b919050565b600080604083850312156110bb57600080fd5b6110c48361108c565b946020939093013593505050565b6000806000606084860312156110e757600080fd5b6110f08461108c565b92506110fe6020850161108c565b9150604084013590509250925092565b60008060006040848603121561112357600080fd5b61112c8461108c565b9250602084013567ffffffffffffffff8082111561114957600080fd5b818601915086601f83011261115d57600080fd5b81358181111561116c57600080fd5b87602082850101111561117e57600080fd5b6020830194508093505050509250925092565b6000602082840312156111a357600080fd5b61100c8261108c565b600080604083850312156111bf57600080fd5b6111c88361108c565b9150602083013580151581146111dd57600080fd5b809150509250929050565b634e487b7160e01b600052604160045260246000fd5b6000806000806080858703121561121457600080fd5b61121d8561108c565b935061122b6020860161108c565b925060408501359150606085013567ffffffffffffffff8082111561124f57600080fd5b818701915087601f83011261126357600080fd5b813581811115611275576112756111e8565b604051601f8201601f19908116603f0116810190838211818310171561129d5761129d6111e8565b816040528281528a60208487010111156112b657600080fd5b82602086016020830137600060208483010152809550505050505092959194509250565b600080604083850312156112ed57600080fd5b6112f68361108c565b91506113046020840161108c565b90509250929050565b600181811c9082168061132157607f821691505b6020821081141561134257634e487b7160e01b600052602260045260246000fd5b50919050565b634e487b7160e01b600052601160045260246000fd5b60008282101561137057611370611348565b500390565b6000821982111561138857611388611348565b500190565b60208082526032908201527f4552433732313a207472616e7366657220746f206e6f6e20455243373231526560408201527131b2b4bb32b91034b6b83632b6b2b73a32b960711b606082015260800190565b6001600160a01b038581168252841660208201526040810183905260806060820181905260009061141290830184611013565b9695505050505050565b60006020828403121561142e57600080fd5b815161100c81610fd656fea26469706673582212204247f53f4e41447c4df3e6e83a4f772605bd832a20df52dcea4f05c5b0c37df764736f6c634300080b0033",
  "immutableReferences": {},
  "source": "// SPDX-License-Identifier: MIT\n\npragma solidity ^0.8.0;\n\n// import \"@openzeppelin/contracts/access/AccessControl.sol\";\nimport \"@openzeppelin/contracts/token/ERC721/ERC721.sol\";\n\nimport \"@openzeppelin/contracts/utils/Address.sol\";\nimport \"@openzeppelin/contracts/utils/Counters.sol\";\nimport \"@openzeppelin/contracts/utils/Strings.sol\";\n\n// import \"@openzeppelin/contracts/finance/PaymentSplitter.sol\";\n\n// TODO - Test Rinkey Opensea whitelisting \n// TODO - See If More Optimization Is Possible \n// TODO - ERC-2981 Support - Pending OpenZeppelin 4.5.0\n// TODO - Check all values are correct for reserved apes, max ape purchases, etc \n\ncontract OwnableDelegateProxy {}\n/**\n * Used to delegate ownership of a contract to another address, to save on unneeded transactions to approve contract use for users\n */\ncontract ProxyRegistry {\n  mapping(address => OwnableDelegateProxy) public proxies;\n}\n\ncontract Badge is ERC721 {\n    // using SafeMath for uint256;\n    using Strings for uint256;\n    using Counters for Counters.Counter;\n    using Address for address payable;\n\n    address proxyRegistryAddress;\n\n    Counters.Counter private _id;\n\n    // struct BadgeMetadata {\n    //     string name;\n    //     string description;\n    //     string url;\n    //     string image_url;\n    //     string issuedByGroupId;\n    //     string issuedByUserId;\n    //     string issuedToGroupId;\n    //     string issuedToUserId;\n    // }\n\n    // mapping (uint256 => BadgeMetadata) metadata;\n\n    mapping (uint256 => string) tokenURIs;\n\n    constructor( ) ERC721(\"Excellence Badge\", \"BADGE\") {}\n\n    function mintBadge(address _recipient, string calldata  _uri) external payable {\n        \n        _id.increment();\n        uint256 current_id = _id.current();\n        tokenURIs[current_id] = _uri;\n        _safeMint(_recipient, current_id);\n\n        // metadata[current_id].name = \"name\";\n        // metadata[current_id].description = \"DESCRIPTION\";\n        // metadata[current_id].url = \"URL\";\n\n\n        // require(privateSaleActive, \"Sale is not active\");\n        // require(numberOfTokens <= _allowList[msg.sender], \"You are not allowed to mint anymore apes\");\n        // require(_id.current() + numberOfTokens <= maxApes, \"Apes have been sold out!\");\n        // require(price * numberOfTokens <= msg.value, \"Ether value sent is not correct\");\n        // _allowList[msg.sender] -= numberOfTokens;\n    }\n\n    function transferFrom ( address from, address to, uint256 tokenId) public virtual override {\n        require(from == address(0), \"Badges are not transferable\");\n        _transfer(from, to, tokenId);\n    }\n    // function setAllowList(address[] calldata addresses, uint256 numAllowedToMint) external  {\n    //     for (uint256 i = 0; i < addresses.length; i++) {\n    //         _allowList[addresses[i]] = numAllowedToMint;\n    //     }\n    // }\n\n    // function mintApe(uint256 numberOfTokens) external payable {\n    //     require(privateSaleActive, \"Sale is not active\");\n    //     require(numberOfTokens <= _allowList[msg.sender], \"You are not allowed to mint anymore apes\");\n    //     require(_id.current() + numberOfTokens <= maxApes, \"Apes have been sold out!\");\n    //     require(price * numberOfTokens <= msg.value, \"Ether value sent is not correct\");\n    //     _allowList[msg.sender] -= numberOfTokens;\n        \n    //     for (uint256 i = 0; i < numberOfTokens; i++) {\n    //         _id.increment();\n    //         _safeMint(msg.sender, _id.current());\n    //     }\n    // }\n\n    // function airdropApes(address[] calldata _addresses) external  {\n    //     uint256 _quantity = _addresses.length;\n    //     uint256 _airDroppedApes = airDroppedApes;\n    //     require(_quantity + _airDroppedApes <= reservedAirApes , \"This exceeds the number of reserved apes\");\n    //     require(_id.current() + _quantity <= maxApes, \"Requested number of Apes exceeds max supply\");\n   \n    //     airDroppedApes = _airDroppedApes + _quantity;\n        \n    //     for (uint256 i = 0; i < _quantity; i++) {\n    //         _id.increment();\n    //         _mint(_addresses[i], _id.current());\n    //     }    \n    // }\n\n    // Internal Functions / State Changes\n    function supportsInterface(bytes4 interfaceId) public view virtual override(ERC721) returns (bool) {\n        return super.supportsInterface(interfaceId);\n    }\n\n    function _beforeTokenTransfer(address from, address to, uint256 tokenId) internal virtual override {\n        super._beforeTokenTransfer(from, to, tokenId);\n    }\n\n    // function togglePrivateSaleState() external  returns (bool) {\n    //     privateSaleActive = !privateSaleActive;\n    //     return privateSaleActive;\n    // }\n\n    // function toggleRevealState() external  returns (bool) {\n    //     revealStatus = !revealStatus;\n    //     return revealStatus;\n    // }\n\n    // function totalSupply() external view returns (uint256) {\n    //     return _id.current();\n    // }\n\n    // function setPrice(uint256 _price) external  {\n    //     price = _price;\n    // }\n\n    /**\n     * @dev Returns placeholder IPFS image hash until reveal = true\n     */\n\n    function tokenURI(uint256 tokenId) public view virtual override returns (string memory) {\n        require(_exists(tokenId), \"ERC721Metadata: URI query for nonexistent token\");\n        return tokenURIs[tokenId];\n\n    }\n    /**\n     * Override isApprovedForAll to whitelist user's OpenSea proxy accounts to enable gas-less listings.\n     */\n    // function isApprovedForAll(address owner, address operator)\n    //     override\n    //     public\n    //     view\n    //     returns (bool)\n    // {\n    //     // Whitelist OpenSea proxy contract for easy trading.\n    //     ProxyRegistry proxyRegistry = ProxyRegistry(proxyRegistryAddress);\n    //     if (address(proxyRegistry.proxies(owner)) == operator) {\n    //         return true;\n    //     }\n    //     return super.isApprovedForAll(owner, operator);\n    // }\n}\n",
  "sourcePath": "/Users/charlie/git/ProofOfExcellence/truffle/contracts/award.sol",
  "compiler": {
    "name": "solc",
    "version": "0.8.11+commit.d7f03943.Emscripten.clang"
  },
  "schemaVersion": "3.4.4",
  "updatedAt": "2022-02-19T02:59:14.039Z",
  "networkType": "ethereum",
  "devdoc": {
    "kind": "dev",
    "methods": {
      "approve(address,uint256)": {
        "details": "See {IERC721-approve}."
      },
      "balanceOf(address)": {
        "details": "See {IERC721-balanceOf}."
      },
      "getApproved(uint256)": {
        "details": "See {IERC721-getApproved}."
      },
      "isApprovedForAll(address,address)": {
        "details": "See {IERC721-isApprovedForAll}."
      },
      "name()": {
        "details": "See {IERC721Metadata-name}."
      },
      "ownerOf(uint256)": {
        "details": "See {IERC721-ownerOf}."
      },
      "safeTransferFrom(address,address,uint256)": {
        "details": "See {IERC721-safeTransferFrom}."
      },
      "safeTransferFrom(address,address,uint256,bytes)": {
        "details": "See {IERC721-safeTransferFrom}."
      },
      "setApprovalForAll(address,bool)": {
        "details": "See {IERC721-setApprovalForAll}."
      },
      "supportsInterface(bytes4)": {
        "details": "See {IERC165-supportsInterface}."
      },
      "symbol()": {
        "details": "See {IERC721Metadata-symbol}."
      },
      "tokenURI(uint256)": {
        "details": "Returns placeholder IPFS image hash until reveal = true"
      },
      "transferFrom(address,address,uint256)": {
        "details": "See {IERC721-transferFrom}."
      }
    },
    "version": 1
  },
  "userdoc": {
    "kind": "user",
    "methods": {},
    "version": 1
  }
}