{
  "contractName": "BadgesERC1155",
  "abi": [
    {
      "inputs": [],
      "stateMutability": "nonpayable",
      "type": "constructor"
    },
    {
      "anonymous": false,
      "inputs": [
        {
          "indexed": true,
          "internalType": "address",
          "name": "account",
          "type": "address"
        },
        {
          "indexed": true,
          "internalType": "address",
          "name": "operator",
          "type": "address"
        },
        {
          "indexed": false,
          "internalType": "bool",
          "name": "approved",
          "type": "bool"
        }
      ],
      "name": "ApprovalForAll",
      "type": "event"
    },
    {
      "anonymous": false,
      "inputs": [
        {
          "indexed": true,
          "internalType": "bytes32",
          "name": "role",
          "type": "bytes32"
        },
        {
          "indexed": true,
          "internalType": "bytes32",
          "name": "previousAdminRole",
          "type": "bytes32"
        },
        {
          "indexed": true,
          "internalType": "bytes32",
          "name": "newAdminRole",
          "type": "bytes32"
        }
      ],
      "name": "RoleAdminChanged",
      "type": "event"
    },
    {
      "anonymous": false,
      "inputs": [
        {
          "indexed": true,
          "internalType": "bytes32",
          "name": "role",
          "type": "bytes32"
        },
        {
          "indexed": true,
          "internalType": "address",
          "name": "account",
          "type": "address"
        },
        {
          "indexed": true,
          "internalType": "address",
          "name": "sender",
          "type": "address"
        }
      ],
      "name": "RoleGranted",
      "type": "event"
    },
    {
      "anonymous": false,
      "inputs": [
        {
          "indexed": true,
          "internalType": "bytes32",
          "name": "role",
          "type": "bytes32"
        },
        {
          "indexed": true,
          "internalType": "address",
          "name": "account",
          "type": "address"
        },
        {
          "indexed": true,
          "internalType": "address",
          "name": "sender",
          "type": "address"
        }
      ],
      "name": "RoleRevoked",
      "type": "event"
    },
    {
      "anonymous": false,
      "inputs": [
        {
          "indexed": true,
          "internalType": "address",
          "name": "operator",
          "type": "address"
        },
        {
          "indexed": true,
          "internalType": "address",
          "name": "from",
          "type": "address"
        },
        {
          "indexed": true,
          "internalType": "address",
          "name": "to",
          "type": "address"
        },
        {
          "indexed": false,
          "internalType": "uint256[]",
          "name": "ids",
          "type": "uint256[]"
        },
        {
          "indexed": false,
          "internalType": "uint256[]",
          "name": "values",
          "type": "uint256[]"
        }
      ],
      "name": "TransferBatch",
      "type": "event"
    },
    {
      "anonymous": false,
      "inputs": [
        {
          "indexed": true,
          "internalType": "address",
          "name": "operator",
          "type": "address"
        },
        {
          "indexed": true,
          "internalType": "address",
          "name": "from",
          "type": "address"
        },
        {
          "indexed": true,
          "internalType": "address",
          "name": "to",
          "type": "address"
        },
        {
          "indexed": false,
          "internalType": "uint256",
          "name": "id",
          "type": "uint256"
        },
        {
          "indexed": false,
          "internalType": "uint256",
          "name": "value",
          "type": "uint256"
        }
      ],
      "name": "TransferSingle",
      "type": "event"
    },
    {
      "anonymous": false,
      "inputs": [
        {
          "indexed": false,
          "internalType": "string",
          "name": "value",
          "type": "string"
        },
        {
          "indexed": true,
          "internalType": "uint256",
          "name": "id",
          "type": "uint256"
        }
      ],
      "name": "URI",
      "type": "event"
    },
    {
      "inputs": [],
      "name": "DEFAULT_ADMIN_ROLE",
      "outputs": [
        {
          "internalType": "bytes32",
          "name": "",
          "type": "bytes32"
        }
      ],
      "stateMutability": "view",
      "type": "function",
      "constant": true
    },
    {
      "inputs": [
        {
          "internalType": "uint256",
          "name": "",
          "type": "uint256"
        }
      ],
      "name": "badgeCreators",
      "outputs": [
        {
          "internalType": "address",
          "name": "",
          "type": "address"
        }
      ],
      "stateMutability": "view",
      "type": "function",
      "constant": true
    },
    {
      "inputs": [
        {
          "internalType": "address",
          "name": "account",
          "type": "address"
        },
        {
          "internalType": "uint256",
          "name": "id",
          "type": "uint256"
        }
      ],
      "name": "balanceOf",
      "outputs": [
        {
          "internalType": "uint256",
          "name": "",
          "type": "uint256"
        }
      ],
      "stateMutability": "view",
      "type": "function",
      "constant": true
    },
    {
      "inputs": [
        {
          "internalType": "address[]",
          "name": "accounts",
          "type": "address[]"
        },
        {
          "internalType": "uint256[]",
          "name": "ids",
          "type": "uint256[]"
        }
      ],
      "name": "balanceOfBatch",
      "outputs": [
        {
          "internalType": "uint256[]",
          "name": "",
          "type": "uint256[]"
        }
      ],
      "stateMutability": "view",
      "type": "function",
      "constant": true
    },
    {
      "inputs": [
        {
          "internalType": "uint256",
          "name": "id",
          "type": "uint256"
        }
      ],
      "name": "exists",
      "outputs": [
        {
          "internalType": "bool",
          "name": "",
          "type": "bool"
        }
      ],
      "stateMutability": "view",
      "type": "function",
      "constant": true
    },
    {
      "inputs": [
        {
          "internalType": "bytes32",
          "name": "role",
          "type": "bytes32"
        }
      ],
      "name": "getRoleAdmin",
      "outputs": [
        {
          "internalType": "bytes32",
          "name": "",
          "type": "bytes32"
        }
      ],
      "stateMutability": "view",
      "type": "function",
      "constant": true
    },
    {
      "inputs": [
        {
          "internalType": "bytes32",
          "name": "role",
          "type": "bytes32"
        },
        {
          "internalType": "address",
          "name": "account",
          "type": "address"
        }
      ],
      "name": "grantRole",
      "outputs": [],
      "stateMutability": "nonpayable",
      "type": "function"
    },
    {
      "inputs": [
        {
          "internalType": "bytes32",
          "name": "role",
          "type": "bytes32"
        },
        {
          "internalType": "address",
          "name": "account",
          "type": "address"
        }
      ],
      "name": "hasRole",
      "outputs": [
        {
          "internalType": "bool",
          "name": "",
          "type": "bool"
        }
      ],
      "stateMutability": "view",
      "type": "function",
      "constant": true
    },
    {
      "inputs": [
        {
          "internalType": "address",
          "name": "account",
          "type": "address"
        },
        {
          "internalType": "address",
          "name": "operator",
          "type": "address"
        }
      ],
      "name": "isApprovedForAll",
      "outputs": [
        {
          "internalType": "bool",
          "name": "",
          "type": "bool"
        }
      ],
      "stateMutability": "view",
      "type": "function",
      "constant": true
    },
    {
      "inputs": [],
      "name": "name",
      "outputs": [
        {
          "internalType": "string",
          "name": "",
          "type": "string"
        }
      ],
      "stateMutability": "view",
      "type": "function",
      "constant": true
    },
    {
      "inputs": [
        {
          "internalType": "bytes32",
          "name": "role",
          "type": "bytes32"
        },
        {
          "internalType": "address",
          "name": "account",
          "type": "address"
        }
      ],
      "name": "renounceRole",
      "outputs": [],
      "stateMutability": "nonpayable",
      "type": "function"
    },
    {
      "inputs": [
        {
          "internalType": "bytes32",
          "name": "role",
          "type": "bytes32"
        },
        {
          "internalType": "address",
          "name": "account",
          "type": "address"
        }
      ],
      "name": "revokeRole",
      "outputs": [],
      "stateMutability": "nonpayable",
      "type": "function"
    },
    {
      "inputs": [
        {
          "internalType": "address",
          "name": "from",
          "type": "address"
        },
        {
          "internalType": "address",
          "name": "to",
          "type": "address"
        },
        {
          "internalType": "uint256[]",
          "name": "ids",
          "type": "uint256[]"
        },
        {
          "internalType": "uint256[]",
          "name": "amounts",
          "type": "uint256[]"
        },
        {
          "internalType": "bytes",
          "name": "data",
          "type": "bytes"
        }
      ],
      "name": "safeBatchTransferFrom",
      "outputs": [],
      "stateMutability": "nonpayable",
      "type": "function"
    },
    {
      "inputs": [
        {
          "internalType": "address",
          "name": "from",
          "type": "address"
        },
        {
          "internalType": "address",
          "name": "to",
          "type": "address"
        },
        {
          "internalType": "uint256",
          "name": "id",
          "type": "uint256"
        },
        {
          "internalType": "uint256",
          "name": "amount",
          "type": "uint256"
        },
        {
          "internalType": "bytes",
          "name": "data",
          "type": "bytes"
        }
      ],
      "name": "safeTransferFrom",
      "outputs": [],
      "stateMutability": "nonpayable",
      "type": "function"
    },
    {
      "inputs": [
        {
          "internalType": "address",
          "name": "operator",
          "type": "address"
        },
        {
          "internalType": "bool",
          "name": "approved",
          "type": "bool"
        }
      ],
      "name": "setApprovalForAll",
      "outputs": [],
      "stateMutability": "nonpayable",
      "type": "function"
    },
    {
      "inputs": [
        {
          "internalType": "uint256",
          "name": "id",
          "type": "uint256"
        }
      ],
      "name": "totalSupply",
      "outputs": [
        {
          "internalType": "uint256",
          "name": "",
          "type": "uint256"
        }
      ],
      "stateMutability": "view",
      "type": "function",
      "constant": true
    },
    {
      "inputs": [
        {
          "internalType": "uint256",
          "name": "_badgeLimit",
          "type": "uint256"
        },
        {
          "internalType": "string",
          "name": "_name",
          "type": "string"
        },
        {
          "internalType": "string",
          "name": "_uri",
          "type": "string"
        }
      ],
      "name": "createNewBadge",
      "outputs": [
        {
          "internalType": "uint256",
          "name": "",
          "type": "uint256"
        }
      ],
      "stateMutability": "nonpayable",
      "type": "function"
    },
    {
      "inputs": [
        {
          "internalType": "address",
          "name": "account",
          "type": "address"
        },
        {
          "internalType": "uint256",
          "name": "id",
          "type": "uint256"
        },
        {
          "internalType": "uint256",
          "name": "amount",
          "type": "uint256"
        },
        {
          "internalType": "bytes",
          "name": "data",
          "type": "bytes"
        }
      ],
      "name": "mint",
      "outputs": [],
      "stateMutability": "nonpayable",
      "type": "function"
    },
    {
      "inputs": [
        {
          "internalType": "address",
          "name": "_to",
          "type": "address"
        },
        {
          "internalType": "uint256[]",
          "name": "_ids",
          "type": "uint256[]"
        }
      ],
      "name": "setBadgeOwner",
      "outputs": [],
      "stateMutability": "nonpayable",
      "type": "function"
    },
    {
      "inputs": [
        {
          "internalType": "uint256",
          "name": "id",
          "type": "uint256"
        }
      ],
      "name": "uri",
      "outputs": [
        {
          "internalType": "string",
          "name": "",
          "type": "string"
        }
      ],
      "stateMutability": "view",
      "type": "function",
      "constant": true
    },
    {
      "inputs": [
        {
          "internalType": "bytes4",
          "name": "interfaceId",
          "type": "bytes4"
        }
      ],
      "name": "supportsInterface",
      "outputs": [
        {
          "internalType": "bool",
          "name": "",
          "type": "bool"
        }
      ],
      "stateMutability": "view",
      "type": "function",
      "constant": true
    }
  ],
  "bytecode": "0x600060055560c0604052600d60808190526c4261646765734552433131353560981b60a09081526200003591600c91906200014d565b503480156200004357600080fd5b5060408051808201909152600d81526c4261646765734552433131353560981b6020820152620000738162000087565b5062000081600033620000a0565b62000230565b80516200009c9060029060208401906200014d565b5050565b60008281526003602090815260408083206001600160a01b03851684529091529020546200009c908390839060ff166200009c5760008281526003602090815260408083206001600160a01b03851684529091529020805460ff19166001179055620001093390565b6001600160a01b0316816001600160a01b0316837f2f8788117e7eff1d82e926ec794901d17c78024a50270940304540a733656f0d60405160405180910390a45050565b8280546200015b90620001f3565b90600052602060002090601f0160209004810192826200017f5760008555620001ca565b82601f106200019a57805160ff1916838001178555620001ca565b82800160010185558215620001ca579182015b82811115620001ca578251825591602001919060010190620001ad565b50620001d8929150620001dc565b5090565b5b80821115620001d85760008155600101620001dd565b600181811c908216806200020857607f821691505b602082108114156200022a57634e487b7160e01b600052602260045260246000fd5b50919050565b6122c380620002406000396000f3fe608060405234801561001057600080fd5b50600436106101365760003560e01c80634e1273f4116100b8578063a217fddf1161007c578063a217fddf146102d9578063a22cb465146102e1578063bd85b039146102f4578063d547741f14610314578063e985e9c514610327578063f242432a1461036357600080fd5b80634e1273f4146102305780634f558e7914610250578063692ebde914610272578063731133e9146102b357806391d14854146102c657600080fd5b80632eb2c2d6116100ff5780632eb2c2d6146101cf5780632f2ff15d146101e457806336568abe146101f75780633d6cc1041461020a5780633e181c031461021d57600080fd5b8062fdd58e1461013b57806301ffc9a71461016157806306fdde03146101845780630e89341c14610199578063248a9ca3146101ac575b600080fd5b61014e61014936600461183b565b610376565b6040519081526020015b60405180910390f35b61017461016f36600461187e565b61040d565b6040519015158152602001610158565b61018c61041e565b60405161015891906118f7565b61018c6101a736600461190a565b6104ac565b61014e6101ba36600461190a565b60009081526003602052604090206001015490565b6101e26101dd366004611a61565b61054e565b005b6101e26101f2366004611b0a565b6105e5565b6101e2610205366004611b0a565b610610565b61014e610218366004611b7e565b61068e565b6101e261022b366004611bf7565b610705565b61024361023e366004611c44565b6107ba565b6040516101589190611d3f565b61017461025e36600461190a565b600090815260046020526040902054151590565b61029b61028036600461190a565b6006602052600090815260409020546001600160a01b031681565b6040516001600160a01b039091168152602001610158565b6101e26102c1366004611d52565b6108e3565b6101746102d4366004611b0a565b6109e3565b61014e600081565b6101e26102ef366004611db2565b610a0e565b61014e61030236600461190a565b60009081526004602052604090205490565b6101e2610322366004611b0a565b610a19565b610174610335366004611dee565b6001600160a01b03918216600090815260016020908152604080832093909416825291909152205460ff1690565b6101e2610371366004611e18565b610a3f565b60006001600160a01b0383166103e75760405162461bcd60e51b815260206004820152602b60248201527f455243313135353a2062616c616e636520717565727920666f7220746865207a60448201526a65726f206164647265737360a81b60648201526084015b60405180910390fd5b506000908152602081815260408083206001600160a01b03949094168352929052205490565b600061041882610ac6565b92915050565b600c805461042b90611e7c565b80601f016020809104026020016040519081016040528092919081815260200182805461045790611e7c565b80156104a45780601f10610479576101008083540402835291602001916104a4565b820191906000526020600020905b81548152906001019060200180831161048757829003601f168201915b505050505081565b6000818152600a602052604090208054606091906104c990611e7c565b80601f01602080910402602001604051908101604052809291908181526020018280546104f590611e7c565b80156105425780601f1061051757610100808354040283529160200191610542565b820191906000526020600020905b81548152906001019060200180831161052557829003601f168201915b50505050509050919050565b6001600160a01b03851633148061056a575061056a8533610335565b6105d15760405162461bcd60e51b815260206004820152603260248201527f455243313135353a207472616e736665722063616c6c6572206973206e6f74206044820152711bdddb995c881b9bdc88185c1c1c9bdd995960721b60648201526084016103de565b6105de8585858585610aeb565b5050505050565b6000828152600360205260409020600101546106018133610cce565b61060b8383610d32565b505050565b6001600160a01b03811633146106805760405162461bcd60e51b815260206004820152602f60248201527f416363657373436f6e74726f6c3a2063616e206f6e6c792072656e6f756e636560448201526e103937b632b9903337b91039b2b63360891b60648201526084016103de565b61068a8282610db8565b5050565b600080610699610e1f565b90506106a3610e35565b600081815260066020908152604080832080546001600160a01b03191633179055600882528083208a9055600990915290206106e0908787611786565b506000818152600a602052604090206106fa908585611786565b509695505050505050565b6001600160a01b0382166107735760405162461bcd60e51b815260206004820152602f60248201527f455243313135355472616461626c652373657442616467654f776e65723a204960448201526e272b20a624a22fa0a2222922a9a99760891b60648201526084016103de565b60005b815181101561060b57600082828151811061079357610793611eb7565b602002602001015190506107a78482610e4c565b50806107b281611ee3565b915050610776565b6060815183511461081f5760405162461bcd60e51b815260206004820152602960248201527f455243313135353a206163636f756e747320616e6420696473206c656e677468604482015268040dad2e6dac2e8c6d60bb1b60648201526084016103de565b600083516001600160401b0381111561083a5761083a611923565b604051908082528060200260200182016040528015610863578160200160208202803683370190505b50905060005b84518110156108db576108ae85828151811061088757610887611eb7565b60200260200101518583815181106108a1576108a1611eb7565b6020026020010151610376565b8282815181106108c0576108c0611eb7565b60209081029190910101526108d481611ee3565b9050610869565b509392505050565b60008381526006602052604090205483906001600160a01b0316331461091b5760405162461bcd60e51b81526004016103de90611efe565b60008481526008602052604090205480156109ab57600085815260076020526040902054819061094c908690611f4f565b11156109ab5760405162461bcd60e51b815260206004820152602860248201527f4e46547931313535236d696e743a20544f4b454e5f4d41585f535550504c595f604482015267115610d15151115160c21b60648201526084016103de565b600085815260076020526040812080548692906109c9908490611f4f565b909155506109db905086868686610eb3565b505050505050565b60009182526003602090815260408084206001600160a01b0393909316845291905290205460ff1690565b61068a338383610fc3565b600082815260036020526040902060010154610a358133610cce565b61060b8383610db8565b6001600160a01b038516331480610a5b5750610a5b8533610335565b610ab95760405162461bcd60e51b815260206004820152602960248201527f455243313135353a2063616c6c6572206973206e6f74206f776e6572206e6f7260448201526808185c1c1c9bdd995960ba1b60648201526084016103de565b6105de85858585856110a4565b60006001600160e01b03198216637965db0b60e01b14806104185750610418826111c1565b8151835114610b4d5760405162461bcd60e51b815260206004820152602860248201527f455243313135353a2069647320616e6420616d6f756e7473206c656e677468206044820152670dad2e6dac2e8c6d60c31b60648201526084016103de565b6001600160a01b038416610b735760405162461bcd60e51b81526004016103de90611f67565b33610b82818787878787611211565b60005b8451811015610c68576000858281518110610ba257610ba2611eb7565b602002602001015190506000858381518110610bc057610bc0611eb7565b602090810291909101810151600084815280835260408082206001600160a01b038e168352909352919091205490915081811015610c105760405162461bcd60e51b81526004016103de90611fac565b6000838152602081815260408083206001600160a01b038e8116855292528083208585039055908b16825281208054849290610c4d908490611f4f565b9250508190555050505080610c6190611ee3565b9050610b85565b50846001600160a01b0316866001600160a01b0316826001600160a01b03167f4a39dc06d4c0dbc64b70af90fd698a233a518aa5d07e595d983b8c0526c8f7fb8787604051610cb8929190611ff6565b60405180910390a46109db818787878787611276565b610cd882826109e3565b61068a57610cf0816001600160a01b031660146113d2565b610cfb8360206113d2565b604051602001610d0c929190612024565b60408051601f198184030181529082905262461bcd60e51b82526103de916004016118f7565b610d3c82826109e3565b61068a5760008281526003602090815260408083206001600160a01b03851684529091529020805460ff19166001179055610d743390565b6001600160a01b0316816001600160a01b0316837f2f8788117e7eff1d82e926ec794901d17c78024a50270940304540a733656f0d60405160405180910390a45050565b610dc282826109e3565b1561068a5760008281526003602090815260408083206001600160a01b0385168085529252808320805460ff1916905551339285917ff6391f5c32d9c69d2a47ea670b442974b53935d1edc7fd64eb21e047a839171b9190a45050565b60006005546001610e309190611f4f565b905090565b60058054906000610e4583611ee3565b9190505550565b60008181526006602052604090205481906001600160a01b03163314610e845760405162461bcd60e51b81526004016103de90611efe565b50600090815260066020526040902080546001600160a01b0319166001600160a01b0392909216919091179055565b6001600160a01b038416610f135760405162461bcd60e51b815260206004820152602160248201527f455243313135353a206d696e7420746f20746865207a65726f206164647265736044820152607360f81b60648201526084016103de565b33610f3381600087610f2488611574565b610f2d88611574565b87611211565b6000848152602081815260408083206001600160a01b038916845290915281208054859290610f63908490611f4f565b909155505060408051858152602081018590526001600160a01b0380881692600092918516917fc3d58168c5ae7397731d063d5bbf3d657854427343f4c083240f7aacaa2d0f62910160405180910390a46105de816000878787876115bf565b816001600160a01b0316836001600160a01b031614156110375760405162461bcd60e51b815260206004820152602960248201527f455243313135353a2073657474696e6720617070726f76616c20737461747573604482015268103337b91039b2b63360b91b60648201526084016103de565b6001600160a01b03838116600081815260016020908152604080832094871680845294825291829020805460ff191686151590811790915591519182527f17307eab39ab6107e8899845ad3d59bd9653f200f220920489ca2b5937696c31910160405180910390a3505050565b6001600160a01b0384166110ca5760405162461bcd60e51b81526004016103de90611f67565b336110da818787610f2488611574565b6000848152602081815260408083206001600160a01b038a1684529091529020548381101561111b5760405162461bcd60e51b81526004016103de90611fac565b6000858152602081815260408083206001600160a01b038b8116855292528083208785039055908816825281208054869290611158908490611f4f565b909155505060408051868152602081018690526001600160a01b03808916928a821692918616917fc3d58168c5ae7397731d063d5bbf3d657854427343f4c083240f7aacaa2d0f62910160405180910390a46111b88288888888886115bf565b50505050505050565b60006001600160e01b03198216636cdb3d1360e11b14806111f257506001600160e01b031982166303a24d0760e21b145b8061041857506301ffc9a760e01b6001600160e01b0319831614610418565b6001600160a01b038516156112685760405162461bcd60e51b815260206004820152601b60248201527f42616467657320617265206e6f74207472616e7366657261626c65000000000060448201526064016103de565b6109db86868686868661167a565b6001600160a01b0384163b156109db5760405163bc197c8160e01b81526001600160a01b0385169063bc197c81906112ba9089908990889088908890600401612093565b6020604051808303816000875af19250505080156112f5575060408051601f3d908101601f191682019092526112f2918101906120f1565b60015b6113a25761130161210e565b806308c379a0141561133b575061131661212a565b80611321575061133d565b8060405162461bcd60e51b81526004016103de91906118f7565b505b60405162461bcd60e51b815260206004820152603460248201527f455243313135353a207472616e7366657220746f206e6f6e20455243313135356044820152732932b1b2b4bb32b91034b6b83632b6b2b73a32b960611b60648201526084016103de565b6001600160e01b0319811663bc197c8160e01b146111b85760405162461bcd60e51b81526004016103de906121b3565b606060006113e18360026121fb565b6113ec906002611f4f565b6001600160401b0381111561140357611403611923565b6040519080825280601f01601f19166020018201604052801561142d576020820181803683370190505b509050600360fc1b8160008151811061144857611448611eb7565b60200101906001600160f81b031916908160001a905350600f60fb1b8160018151811061147757611477611eb7565b60200101906001600160f81b031916908160001a905350600061149b8460026121fb565b6114a6906001611f4f565b90505b600181111561151e576f181899199a1a9b1b9c1cb0b131b232b360811b85600f16601081106114da576114da611eb7565b1a60f81b8282815181106114f0576114f0611eb7565b60200101906001600160f81b031916908160001a90535060049490941c936115178161221a565b90506114a9565b50831561156d5760405162461bcd60e51b815260206004820181905260248201527f537472696e67733a20686578206c656e67746820696e73756666696369656e7460448201526064016103de565b9392505050565b604080516001808252818301909252606091600091906020808301908036833701905050905082816000815181106115ae576115ae611eb7565b602090810291909101015292915050565b6001600160a01b0384163b156109db5760405163f23a6e6160e01b81526001600160a01b0385169063f23a6e61906116039089908990889088908890600401612231565b6020604051808303816000875af192505050801561163e575060408051601f3d908101601f1916820190925261163b918101906120f1565b60015b61164a5761130161210e565b6001600160e01b0319811663f23a6e6160e01b146111b85760405162461bcd60e51b81526004016103de906121b3565b6001600160a01b0385166117015760005b83518110156116ff578281815181106116a6576116a6611eb7565b6020026020010151600460008684815181106116c4576116c4611eb7565b6020026020010151815260200190815260200160002060008282546116e99190611f4f565b909155506116f8905081611ee3565b905061168b565b505b6001600160a01b0384166109db5760005b83518110156111b85782818151811061172d5761172d611eb7565b60200260200101516004600086848151811061174b5761174b611eb7565b6020026020010151815260200190815260200160002060008282546117709190612276565b9091555061177f905081611ee3565b9050611712565b82805461179290611e7c565b90600052602060002090601f0160209004810192826117b457600085556117fa565b82601f106117cd5782800160ff198235161785556117fa565b828001600101855582156117fa579182015b828111156117fa5782358255916020019190600101906117df565b5061180692915061180a565b5090565b5b80821115611806576000815560010161180b565b80356001600160a01b038116811461183657600080fd5b919050565b6000806040838503121561184e57600080fd5b6118578361181f565b946020939093013593505050565b6001600160e01b03198116811461187b57600080fd5b50565b60006020828403121561189057600080fd5b813561156d81611865565b60005b838110156118b657818101518382015260200161189e565b838111156118c5576000848401525b50505050565b600081518084526118e381602086016020860161189b565b601f01601f19169290920160200192915050565b60208152600061156d60208301846118cb565b60006020828403121561191c57600080fd5b5035919050565b634e487b7160e01b600052604160045260246000fd5b601f8201601f191681016001600160401b038111828210171561195e5761195e611923565b6040525050565b60006001600160401b0382111561197e5761197e611923565b5060051b60200190565b600082601f83011261199957600080fd5b813560206119a682611965565b6040516119b38282611939565b83815260059390931b85018201928281019150868411156119d357600080fd5b8286015b848110156106fa57803583529183019183016119d7565b600082601f8301126119ff57600080fd5b81356001600160401b03811115611a1857611a18611923565b604051611a2f601f8301601f191660200182611939565b818152846020838601011115611a4457600080fd5b816020850160208301376000918101602001919091529392505050565b600080600080600060a08688031215611a7957600080fd5b611a828661181f565b9450611a906020870161181f565b935060408601356001600160401b0380821115611aac57600080fd5b611ab889838a01611988565b94506060880135915080821115611ace57600080fd5b611ada89838a01611988565b93506080880135915080821115611af057600080fd5b50611afd888289016119ee565b9150509295509295909350565b60008060408385031215611b1d57600080fd5b82359150611b2d6020840161181f565b90509250929050565b60008083601f840112611b4857600080fd5b5081356001600160401b03811115611b5f57600080fd5b602083019150836020828501011115611b7757600080fd5b9250929050565b600080600080600060608688031215611b9657600080fd5b8535945060208601356001600160401b0380821115611bb457600080fd5b611bc089838a01611b36565b90965094506040880135915080821115611bd957600080fd5b50611be688828901611b36565b969995985093965092949392505050565b60008060408385031215611c0a57600080fd5b611c138361181f565b915060208301356001600160401b03811115611c2e57600080fd5b611c3a85828601611988565b9150509250929050565b60008060408385031215611c5757600080fd5b82356001600160401b0380821115611c6e57600080fd5b818501915085601f830112611c8257600080fd5b81356020611c8f82611965565b604051611c9c8282611939565b83815260059390931b8501820192828101915089841115611cbc57600080fd5b948201945b83861015611ce157611cd28661181f565b82529482019490820190611cc1565b96505086013592505080821115611cf757600080fd5b50611c3a85828601611988565b600081518084526020808501945080840160005b83811015611d3457815187529582019590820190600101611d18565b509495945050505050565b60208152600061156d6020830184611d04565b60008060008060808587031215611d6857600080fd5b611d718561181f565b9350602085013592506040850135915060608501356001600160401b03811115611d9a57600080fd5b611da6878288016119ee565b91505092959194509250565b60008060408385031215611dc557600080fd5b611dce8361181f565b915060208301358015158114611de357600080fd5b809150509250929050565b60008060408385031215611e0157600080fd5b611e0a8361181f565b9150611b2d6020840161181f565b600080600080600060a08688031215611e3057600080fd5b611e398661181f565b9450611e476020870161181f565b9350604086013592506060860135915060808601356001600160401b03811115611e7057600080fd5b611afd888289016119ee565b600181811c90821680611e9057607f821691505b60208210811415611eb157634e487b7160e01b600052602260045260246000fd5b50919050565b634e487b7160e01b600052603260045260246000fd5b634e487b7160e01b600052601160045260246000fd5b6000600019821415611ef757611ef7611ecd565b5060010190565b60208082526031908201527f455243313135355472616461626c65236f6e6c7943726561746f723a204f4e4c6040820152701657d8dc99585d1bdc97d0531313d5d151607a1b606082015260800190565b60008219821115611f6257611f62611ecd565b500190565b60208082526025908201527f455243313135353a207472616e7366657220746f20746865207a65726f206164604082015264647265737360d81b606082015260800190565b6020808252602a908201527f455243313135353a20696e73756666696369656e742062616c616e636520666f60408201526939103a3930b739b332b960b11b606082015260800190565b6040815260006120096040830185611d04565b828103602084015261201b8185611d04565b95945050505050565b76020b1b1b2b9b9a1b7b73a3937b61d1030b1b1b7bab73a1604d1b81526000835161205681601785016020880161189b565b7001034b99036b4b9b9b4b733903937b6329607d1b601791840191820152835161208781602884016020880161189b565b01602801949350505050565b6001600160a01b0386811682528516602082015260a0604082018190526000906120bf90830186611d04565b82810360608401526120d18186611d04565b905082810360808401526120e581856118cb565b98975050505050505050565b60006020828403121561210357600080fd5b815161156d81611865565b600060033d11156121275760046000803e5060005160e01c5b90565b600060443d10156121385790565b6040516003193d81016004833e81513d6001600160401b03816024840111818411171561216757505050505090565b828501915081518181111561217f5750505050505090565b843d87010160208285010111156121995750505050505090565b6121a860208286010187611939565b509095945050505050565b60208082526028908201527f455243313135353a204552433131353552656365697665722072656a656374656040820152676420746f6b656e7360c01b606082015260800190565b600081600019048311821515161561221557612215611ecd565b500290565b60008161222957612229611ecd565b506000190190565b6001600160a01b03868116825285166020820152604081018490526060810183905260a06080820181905260009061226b908301846118cb565b979650505050505050565b60008282101561228857612288611ecd565b50039056fea264697066735822122044e5f613223b56c2bdeffb39f73e5a7cc6bda6e7924bdf2dc8ba024ebeea68ea64736f6c634300080b0033",
  "immutableReferences": {},
  "source": "// SPDX-License-Identifier: MIT\n/// @custom:security-contact charlie@nftythreads.club\n\npragma solidity >=0.8.6;\n\nimport \"@openzeppelin/contracts/token/ERC1155/ERC1155.sol\";\nimport \"@openzeppelin/contracts/access/AccessControl.sol\";\nimport \"@openzeppelin/contracts/access/Ownable.sol\";\nimport \"@openzeppelin/contracts/token/ERC1155/extensions/ERC1155Supply.sol\"; // Check if this is gas heavy and remove it if needed\nimport \"@openzeppelin/contracts/utils/Strings.sol\";\nimport \"@openzeppelin/contracts/utils/math/SafeMath.sol\";\n\ncontract BadgesERC1155 is ERC1155, AccessControl, ERC1155Supply {\n    using SafeMath for uint256;\n    uint256 private _currentTokenID = 0;\n    mapping(uint256 => address) public badgeCreators;\n    mapping(uint256 => uint256) private _totalSupply;\n    mapping(uint256 => uint256) private badgeLimit;\n    mapping(uint256 => string) private badgeName;\n    mapping(uint256 => string) private tokenURIs;\n    mapping(uint256 => mapping(address => uint256)) private _balances;\n    string public name = \"BadgesERC1155\";\n    bytes32 private constant ADMIN_ROLE = keccak256(\"ADMIN_ROLE\");\n\n    // TODO - Setup roles for each badge ID\n\n    constructor() ERC1155(\"BadgesERC1155\") {\n        _setupRole(DEFAULT_ADMIN_ROLE, msg.sender);\n    }\n\n    // Events\n    /**\n     * @dev Require msg.sender to be the creator of the token id\n     * Should be replaced with a ROLE for each token ID (Badge Type)\n     */\n    modifier onlyCreator(uint256 _id) {\n        require(\n            badgeCreators[_id] == msg.sender,\n            \"ERC1155Tradable#onlyCreator: ONLY_creator_ALLOWED\"\n        );\n        _;\n    }\n\n    function createNewBadge(\n        uint256 _badgeLimit,\n        string calldata _name,\n        string calldata _uri\n    ) external returns (uint256) {\n        uint256 _id = _getNextTokenID();\n        _incrementTokenTypeId();\n\n        badgeCreators[_id] = msg.sender; // replace with role\n        badgeLimit[_id] = _badgeLimit;\n        badgeName[_id] = _name;\n        tokenURIs[_id] = _uri;\n        return _id;\n    }\n\n    function mint(\n        address account,\n        uint256 id,\n        uint256 amount,\n        bytes memory data\n    ) public onlyCreator(id) { // Change to use a role allowing multiple minters\n        uint256 token_limit = badgeLimit[id];\n        if (token_limit != 0) {\n            require(\n                _totalSupply[id] + amount <= token_limit,\n                \"NFTy1155#mint: TOKEN_MAX_SUPPLY_EXCEEDED\"\n            );\n        }\n        _totalSupply[id] += amount;\n        _mint(account, id, amount, data);\n    }\n\n    // Change a role allowing multiple minters\n    function setBadgeOwner(address _to, uint256[] memory _ids) public {\n        require(\n            _to != address(0),\n            \"ERC1155Tradable#setBadgeOwner: INVALID_ADDRESS.\"\n        );\n        for (uint256 i = 0; i < _ids.length; i++) {\n            uint256 id = _ids[i];\n            _setBadgeOwner(_to, id);\n        }\n    }\n\n    function _setBadgeOwner(address _to, uint256 _id)\n        internal\n        onlyCreator(_id)\n    {\n        badgeCreators[_id] = _to;\n    }\n\n    // This seems unnecessary, could use a naked counter instead. \n    function _getNextTokenID() private view returns (uint256) {\n        return _currentTokenID + 1;\n    }\n\n    function uri(uint256 id) public view virtual override returns (string memory) {\n        return tokenURIs[id];\n    }\n\n    /**\n     * @dev increments the value of _currentTokenID\n     */\n    function _incrementTokenTypeId() private {\n        _currentTokenID++;\n    }\n\n    function _beforeTokenTransfer(\n        address operator,\n        address from,\n        address to,\n        uint256[] memory ids,\n        uint256[] memory amounts,\n        bytes memory data\n    ) internal virtual override(ERC1155, ERC1155Supply) {\n        require(from == address(0), \"Badges are not transferable\");\n        super._beforeTokenTransfer(operator, from, to, ids, amounts, data);\n    }\n\n    function supportsInterface(bytes4 interfaceId)\n        public\n        view\n        virtual\n        override(ERC1155, AccessControl)\n        returns (bool)\n    {\n        return super.supportsInterface(interfaceId);\n    }\n}\n",
  "sourcePath": "/Users/charlie/git/ProofOfExcellence/truffle/contracts/1155.sol",
  "compiler": {
    "name": "solc",
    "version": "0.8.11+commit.d7f03943.Emscripten.clang"
  },
  "schemaVersion": "3.4.4",
  "updatedAt": "2022-02-19T02:59:21.988Z",
  "networkType": "ethereum",
  "devdoc": {
    "kind": "dev",
    "methods": {
      "balanceOf(address,uint256)": {
        "details": "See {IERC1155-balanceOf}. Requirements: - `account` cannot be the zero address."
      },
      "balanceOfBatch(address[],uint256[])": {
        "details": "See {IERC1155-balanceOfBatch}. Requirements: - `accounts` and `ids` must have the same length."
      },
      "exists(uint256)": {
        "details": "Indicates whether any token exist with a given id, or not."
      },
      "getRoleAdmin(bytes32)": {
        "details": "Returns the admin role that controls `role`. See {grantRole} and {revokeRole}. To change a role's admin, use {_setRoleAdmin}."
      },
      "grantRole(bytes32,address)": {
        "details": "Grants `role` to `account`. If `account` had not been already granted `role`, emits a {RoleGranted} event. Requirements: - the caller must have ``role``'s admin role."
      },
      "hasRole(bytes32,address)": {
        "details": "Returns `true` if `account` has been granted `role`."
      },
      "isApprovedForAll(address,address)": {
        "details": "See {IERC1155-isApprovedForAll}."
      },
      "renounceRole(bytes32,address)": {
        "details": "Revokes `role` from the calling account. Roles are often managed via {grantRole} and {revokeRole}: this function's purpose is to provide a mechanism for accounts to lose their privileges if they are compromised (such as when a trusted device is misplaced). If the calling account had been revoked `role`, emits a {RoleRevoked} event. Requirements: - the caller must be `account`."
      },
      "revokeRole(bytes32,address)": {
        "details": "Revokes `role` from `account`. If `account` had been granted `role`, emits a {RoleRevoked} event. Requirements: - the caller must have ``role``'s admin role."
      },
      "safeBatchTransferFrom(address,address,uint256[],uint256[],bytes)": {
        "details": "See {IERC1155-safeBatchTransferFrom}."
      },
      "safeTransferFrom(address,address,uint256,uint256,bytes)": {
        "details": "See {IERC1155-safeTransferFrom}."
      },
      "setApprovalForAll(address,bool)": {
        "details": "See {IERC1155-setApprovalForAll}."
      },
      "totalSupply(uint256)": {
        "details": "Total amount of tokens in with a given id."
      }
    },
    "version": 1
  },
  "userdoc": {
    "kind": "user",
    "methods": {},
    "version": 1
  }
}