{
  "contractName": "ProxyRegistry",
  "abi": [
    {
      "inputs": [
        {
          "internalType": "address",
          "name": "",
          "type": "address"
        }
      ],
      "name": "proxies",
      "outputs": [
        {
          "internalType": "contract OwnableDelegateProxy",
          "name": "",
          "type": "address"
        }
      ],
      "stateMutability": "view",
      "type": "function"
    }
  ],
  "bytecode": "0x608060405234801561001057600080fd5b5060d38061001f6000396000f3fe6080604052348015600f57600080fd5b506004361060285760003560e01c8063c455279114602d575b600080fd5b60536038366004606f565b6000602081905290815260409020546001600160a01b031681565b6040516001600160a01b03909116815260200160405180910390f35b600060208284031215608057600080fd5b81356001600160a01b0381168114609657600080fd5b939250505056fea2646970667358221220404179b3f0319c2b5004020813caf5262205fe2b49ae48bac5a6f1a40d4074f564736f6c634300080b0033",
  "immutableReferences": {},
  "source": "// SPDX-License-Identifier: MIT\n\npragma solidity ^0.8.0;\n\n// import \"@openzeppelin/contracts/access/AccessControl.sol\";\nimport \"@openzeppelin/contracts/token/ERC721/ERC721.sol\";\n\nimport \"@openzeppelin/contracts/utils/Address.sol\";\nimport \"@openzeppelin/contracts/utils/Counters.sol\";\nimport \"@openzeppelin/contracts/utils/Strings.sol\";\n\n// import \"@openzeppelin/contracts/finance/PaymentSplitter.sol\";\n\n// TODO - Test Rinkey Opensea whitelisting \n// TODO - See If More Optimization Is Possible \n// TODO - ERC-2981 Support - Pending OpenZeppelin 4.5.0\n// TODO - Check all values are correct for reserved apes, max ape purchases, etc \n\ncontract OwnableDelegateProxy {}\n/**\n * Used to delegate ownership of a contract to another address, to save on unneeded transactions to approve contract use for users\n */\ncontract ProxyRegistry {\n  mapping(address => OwnableDelegateProxy) public proxies;\n}\n\ncontract Badge is ERC721 {\n    // using SafeMath for uint256;\n    using Strings for uint256;\n    using Counters for Counters.Counter;\n    using Address for address payable;\n\n    address proxyRegistryAddress;\n\n    Counters.Counter private _id;\n\n    // struct BadgeMetadata {\n    //     string name;\n    //     string description;\n    //     string url;\n    //     string image_url;\n    //     string issuedByGroupId;\n    //     string issuedByUserId;\n    //     string issuedToGroupId;\n    //     string issuedToUserId;\n    // }\n\n    // mapping (uint256 => BadgeMetadata) metadata;\n\n    mapping (uint256 => string) tokenURIs;\n\n    constructor( ) ERC721(\"Excellence Badge\", \"BADGE\") {}\n\n    function mintBadge(address _recipient, string calldata  _uri) external payable {\n        \n        _id.increment();\n        uint256 current_id = _id.current();\n        tokenURIs[current_id] = _uri;\n        _safeMint(_recipient, current_id);\n\n        // metadata[current_id].name = \"name\";\n        // metadata[current_id].description = \"DESCRIPTION\";\n        // metadata[current_id].url = \"URL\";\n\n\n        // require(privateSaleActive, \"Sale is not active\");\n        // require(numberOfTokens <= _allowList[msg.sender], \"You are not allowed to mint anymore apes\");\n        // require(_id.current() + numberOfTokens <= maxApes, \"Apes have been sold out!\");\n        // require(price * numberOfTokens <= msg.value, \"Ether value sent is not correct\");\n        // _allowList[msg.sender] -= numberOfTokens;\n    }\n\n    function transferFrom ( address from, address to, uint256 tokenId) public virtual override {\n        require(from == address(0), \"Badges are not transferable\");\n        _transfer(from, to, tokenId);\n    }\n    // function setAllowList(address[] calldata addresses, uint256 numAllowedToMint) external  {\n    //     for (uint256 i = 0; i < addresses.length; i++) {\n    //         _allowList[addresses[i]] = numAllowedToMint;\n    //     }\n    // }\n\n    // function mintApe(uint256 numberOfTokens) external payable {\n    //     require(privateSaleActive, \"Sale is not active\");\n    //     require(numberOfTokens <= _allowList[msg.sender], \"You are not allowed to mint anymore apes\");\n    //     require(_id.current() + numberOfTokens <= maxApes, \"Apes have been sold out!\");\n    //     require(price * numberOfTokens <= msg.value, \"Ether value sent is not correct\");\n    //     _allowList[msg.sender] -= numberOfTokens;\n        \n    //     for (uint256 i = 0; i < numberOfTokens; i++) {\n    //         _id.increment();\n    //         _safeMint(msg.sender, _id.current());\n    //     }\n    // }\n\n    // function airdropApes(address[] calldata _addresses) external  {\n    //     uint256 _quantity = _addresses.length;\n    //     uint256 _airDroppedApes = airDroppedApes;\n    //     require(_quantity + _airDroppedApes <= reservedAirApes , \"This exceeds the number of reserved apes\");\n    //     require(_id.current() + _quantity <= maxApes, \"Requested number of Apes exceeds max supply\");\n   \n    //     airDroppedApes = _airDroppedApes + _quantity;\n        \n    //     for (uint256 i = 0; i < _quantity; i++) {\n    //         _id.increment();\n    //         _mint(_addresses[i], _id.current());\n    //     }    \n    // }\n\n    // Internal Functions / State Changes\n    function supportsInterface(bytes4 interfaceId) public view virtual override(ERC721) returns (bool) {\n        return super.supportsInterface(interfaceId);\n    }\n\n    function _beforeTokenTransfer(address from, address to, uint256 tokenId) internal virtual override {\n        super._beforeTokenTransfer(from, to, tokenId);\n    }\n\n    // function togglePrivateSaleState() external  returns (bool) {\n    //     privateSaleActive = !privateSaleActive;\n    //     return privateSaleActive;\n    // }\n\n    // function toggleRevealState() external  returns (bool) {\n    //     revealStatus = !revealStatus;\n    //     return revealStatus;\n    // }\n\n    // function totalSupply() external view returns (uint256) {\n    //     return _id.current();\n    // }\n\n    // function setPrice(uint256 _price) external  {\n    //     price = _price;\n    // }\n\n    /**\n     * @dev Returns placeholder IPFS image hash until reveal = true\n     */\n\n    function tokenURI(uint256 tokenId) public view virtual override returns (string memory) {\n        require(_exists(tokenId), \"ERC721Metadata: URI query for nonexistent token\");\n        return tokenURIs[tokenId];\n\n    }\n    /**\n     * Override isApprovedForAll to whitelist user's OpenSea proxy accounts to enable gas-less listings.\n     */\n    // function isApprovedForAll(address owner, address operator)\n    //     override\n    //     public\n    //     view\n    //     returns (bool)\n    // {\n    //     // Whitelist OpenSea proxy contract for easy trading.\n    //     ProxyRegistry proxyRegistry = ProxyRegistry(proxyRegistryAddress);\n    //     if (address(proxyRegistry.proxies(owner)) == operator) {\n    //         return true;\n    //     }\n    //     return super.isApprovedForAll(owner, operator);\n    // }\n}\n",
  "sourcePath": "/Users/charlie/git/ProofOfExcellence/truffle/contracts/badge.sol",
  "compiler": {
    "name": "solc",
    "version": "0.8.11+commit.d7f03943.Emscripten.clang"
  },
  "schemaVersion": "3.4.4",
  "updatedAt": "2022-02-18T14:50:10.909Z",
  "devdoc": {
    "kind": "dev",
    "methods": {},
    "version": 1
  },
  "userdoc": {
    "kind": "user",
    "methods": {},
    "notice": "Used to delegate ownership of a contract to another address, to save on unneeded transactions to approve contract use for users",
    "version": 1
  }
}